{
  "_format": "hh-sol-artifact-1",
  "contractName": "Vot",
  "sourceName": "contracts/Vot.sol",
  "abi": [
    {
      "inputs": [
        {
          "internalType": "address",
          "name": "_ownerAddress",
          "type": "address"
        },
        {
          "internalType": "address",
          "name": "_contractCandidat",
          "type": "address"
        },
        {
          "internalType": "address",
          "name": "_jetonContract",
          "type": "address"
        }
      ],
      "stateMutability": "nonpayable",
      "type": "constructor"
    },
    {
      "anonymous": false,
      "inputs": [
        {
          "indexed": false,
          "internalType": "address",
          "name": "alegator",
          "type": "address"
        },
        {
          "indexed": false,
          "internalType": "string",
          "name": "candidat",
          "type": "string"
        }
      ],
      "name": "aVotatCandidatul",
      "type": "event"
    },
    {
      "inputs": [
        {
          "internalType": "address",
          "name": "_adresa",
          "type": "address"
        }
      ],
      "name": "aVotat",
      "outputs": [
        {
          "internalType": "bool",
          "name": "",
          "type": "bool"
        }
      ],
      "stateMutability": "view",
      "type": "function"
    },
    {
      "inputs": [
        {
          "internalType": "string",
          "name": "nume",
          "type": "string"
        }
      ],
      "name": "daDreptVot",
      "outputs": [],
      "stateMutability": "nonpayable",
      "type": "function"
    },
    {
      "inputs": [],
      "name": "getOwner",
      "outputs": [
        {
          "internalType": "address",
          "name": "",
          "type": "address"
        }
      ],
      "stateMutability": "view",
      "type": "function"
    },
    {
      "inputs": [
        {
          "internalType": "string",
          "name": "nume",
          "type": "string"
        }
      ],
      "name": "inscrieAlegator",
      "outputs": [],
      "stateMutability": "nonpayable",
      "type": "function"
    },
    {
      "inputs": [
        {
          "internalType": "string",
          "name": "_numeCandidat",
          "type": "string"
        }
      ],
      "name": "voteaza",
      "outputs": [],
      "stateMutability": "nonpayable",
      "type": "function"
    }
  ],
  "bytecode": "0x608060405234801561001057600080fd5b50604051610afa380380610afa83398101604081905261002f9161008d565b600280546001600160a01b039485166001600160a01b0319918216179091556004805493851693821693909317909255600380549190931691161790556100d0565b80516001600160a01b038116811461008857600080fd5b919050565b6000806000606084860312156100a257600080fd5b6100ab84610071565b92506100b960208501610071565b91506100c760408501610071565b90509250925092565b610a1b806100df6000396000f3fe608060405234801561001057600080fd5b50600436106100675760003560e01c806367f6ccdf1161005057806367f6ccdf14610094578063893d20e8146100fa578063bc48244a1461012257600080fd5b806303f22e491461006c5780635d84897114610081575b600080fd5b61007f61007a3660046107e3565b610135565b005b61007f61008f3660046107e3565b610409565b6100e56100a23660046108b2565b73ffffffffffffffffffffffffffffffffffffffff1660009081526020819052604090205474010000000000000000000000000000000000000000900460ff1690565b60405190151581526020015b60405180910390f35b60025460405173ffffffffffffffffffffffffffffffffffffffff90911681526020016100f1565b61007f6101303660046107e3565b610635565b3360008181526020819052604090205474010000000000000000000000000000000000000000900460ff16156101cc576040517f08c379a000000000000000000000000000000000000000000000000000000000815260206004820152600d60248201527f416920766f7461742064656a610000000000000000000000000000000000000060448201526064015b60405180910390fd5b3360009081526020819052604090205473ffffffffffffffffffffffffffffffffffffffff16610258576040517f08c379a000000000000000000000000000000000000000000000000000000000815260206004820152601c60248201527f4e75206573746920696e736372697320636120616c656761746f72210000000060448201526064016101c3565b600480546040517f39306db500000000000000000000000000000000000000000000000000000000815273ffffffffffffffffffffffffffffffffffffffff909116916339306db5916102ad9186910161095d565b600060405180830381600087803b1580156102c757600080fd5b505af11580156102db573d6000803e3d6000fd5b5050336000908152602081905260409081902080547fffffffffffffffffffffff00ffffffffffffffffffffffffffffffffffffffff167401000000000000000000000000000000000000000017905560035460025491517fa9059cbb00000000000000000000000000000000000000000000000000000000815273ffffffffffffffffffffffffffffffffffffffff9283166004820152600160248201529116925063a9059cbb91506044016020604051808303816000875af11580156103a7573d6000803e3d6000fd5b505050506040513d601f19601f820116820180604052508101906103cb9190610970565b507f57d3a45c3255ebaa9eb0e4efaf15802ddf4aa6eee19542fa5a2e7d85ec04c08533836040516103fd929190610992565b60405180910390a15050565b600073ffffffffffffffffffffffffffffffffffffffff1660018260405161043191906109c9565b9081526040519081900360200190205473ffffffffffffffffffffffffffffffffffffffff16146104be576040517f08c379a000000000000000000000000000000000000000000000000000000000815260206004820152601f60248201527f54652d616920696e73637269732064656a6120636120616c656761746f72210060448201526064016101c3565b3360009081526020819052604090205473ffffffffffffffffffffffffffffffffffffffff161561054b576040517f08c379a000000000000000000000000000000000000000000000000000000000815260206004820152601f60248201527f54652d616920696e73637269732064656a6120636120616c656761746f72210060448201526064016101c3565b60408051808201825233808252600060208084018281528383529082905290849020925183549151151574010000000000000000000000000000000000000000027fffffffffffffffffffffff00000000000000000000000000000000000000000090921673ffffffffffffffffffffffffffffffffffffffff91909116171790915590516001906105de9084906109c9565b908152604051908190036020019020805473ffffffffffffffffffffffffffffffffffffffff929092167fffffffffffffffffffffffff000000000000000000000000000000000000000090921691909117905550565b60025473ffffffffffffffffffffffffffffffffffffffff1633146106dc576040517f08c379a000000000000000000000000000000000000000000000000000000000815260206004820152602260248201527f4e7520617665746920766f69652073612064617469206472657074206465207660448201527f6f7400000000000000000000000000000000000000000000000000000000000060648201526084016101c3565b60035460405173ffffffffffffffffffffffffffffffffffffffff9091169063a9059cbb9060019061070f9085906109c9565b908152604051908190036020018120547fffffffff0000000000000000000000000000000000000000000000000000000060e084901b16825273ffffffffffffffffffffffffffffffffffffffff166004820152600160248201526044016020604051808303816000875af115801561078c573d6000803e3d6000fd5b505050506040513d601f19601f820116820180604052508101906107b09190610970565b5050565b7f4e487b7100000000000000000000000000000000000000000000000000000000600052604160045260246000fd5b6000602082840312156107f557600080fd5b813567ffffffffffffffff8082111561080d57600080fd5b818401915084601f83011261082157600080fd5b813581811115610833576108336107b4565b604051601f82017fffffffffffffffffffffffffffffffffffffffffffffffffffffffffffffffe0908116603f01168101908382118183101715610879576108796107b4565b8160405282815287602084870101111561089257600080fd5b826020860160208301376000928101602001929092525095945050505050565b6000602082840312156108c457600080fd5b813573ffffffffffffffffffffffffffffffffffffffff811681146108e857600080fd5b9392505050565b60005b8381101561090a5781810151838201526020016108f2565b50506000910152565b6000815180845261092b8160208601602086016108ef565b601f017fffffffffffffffffffffffffffffffffffffffffffffffffffffffffffffffe0169290920160200192915050565b6020815260006108e86020830184610913565b60006020828403121561098257600080fd5b815180151581146108e857600080fd5b73ffffffffffffffffffffffffffffffffffffffff831681526040602082015260006109c16040830184610913565b949350505050565b600082516109db8184602087016108ef565b919091019291505056fea2646970667358221220bee132906e6c45443d65cb671616739e93d397140198a6fa4bfee5c7fac7868a64736f6c63430008180033",
  "linkReferences": {},
  "deployedLinkReferences": {}
}