{
  "_format": "hh-sol-artifact-1",
  "contractName": "Candidat",
  "sourceName": "contracts/Candidat.sol",
  "abi": [
    {
      "inputs": [
        {
          "internalType": "address",
          "name": "_ownerAddress",
          "type": "address"
        },
        {
          "internalType": "uint256",
          "name": "_taxaParticipare",
          "type": "uint256"
        }
      ],
      "stateMutability": "nonpayable",
      "type": "constructor"
    },
    {
      "inputs": [],
      "name": "calculeazaCastigator",
      "outputs": [
        {
          "internalType": "string",
          "name": "",
          "type": "string"
        }
      ],
      "stateMutability": "view",
      "type": "function"
    },
    {
      "inputs": [
        {
          "internalType": "string",
          "name": "_numeCandidat",
          "type": "string"
        }
      ],
      "name": "getNumarVoturi",
      "outputs": [
        {
          "internalType": "uint256",
          "name": "",
          "type": "uint256"
        }
      ],
      "stateMutability": "view",
      "type": "function"
    },
    {
      "inputs": [],
      "name": "getOwner",
      "outputs": [
        {
          "internalType": "address",
          "name": "",
          "type": "address"
        }
      ],
      "stateMutability": "view",
      "type": "function"
    },
    {
      "inputs": [
        {
          "internalType": "string",
          "name": "_nume",
          "type": "string"
        }
      ],
      "name": "incrementeazaVoturi",
      "outputs": [],
      "stateMutability": "nonpayable",
      "type": "function"
    },
    {
      "inputs": [
        {
          "internalType": "string",
          "name": "_nume",
          "type": "string"
        }
      ],
      "name": "inscrieCandidat",
      "outputs": [],
      "stateMutability": "payable",
      "type": "function"
    }
  ],
  "bytecode": "0x608060405234801561001057600080fd5b50604051610b85380380610b8583398101604081905261002f91610058565b600280546001600160a01b0319166001600160a01b039390931692909217909155600355610092565b6000806040838503121561006b57600080fd5b82516001600160a01b038116811461008257600080fd5b6020939093015192949293505050565b610ae4806100a16000396000f3fe60806040526004361061005a5760003560e01c8063893d20e811610043578063893d20e814610094578063a89b070b146100ce578063c8f79281146100f057600080fd5b806304414ba71461005f57806339306db514610074575b600080fd5b61007261006d366004610702565b61011e565b005b34801561008057600080fd5b5061007261008f366004610702565b610477565b3480156100a057600080fd5b5060025460405173ffffffffffffffffffffffffffffffffffffffff90911681526020015b60405180910390f35b3480156100da57600080fd5b506100e36104d8565b6040516100c591906107f5565b3480156100fc57600080fd5b5061011061010b366004610702565b61067f565b6040519081526020016100c5565b600073ffffffffffffffffffffffffffffffffffffffff166001826040516101469190610846565b9081526040519081900360200190205473ffffffffffffffffffffffffffffffffffffffff16146101fe576040517f08c379a000000000000000000000000000000000000000000000000000000000815260206004820152602160248201527f45786973746120756e2063616e6469646174206375206163657374206e756d6560448201527f210000000000000000000000000000000000000000000000000000000000000060648201526084015b60405180910390fd5b3360009081526020819052604090205473ffffffffffffffffffffffffffffffffffffffff16156102b0576040517f08c379a0000000000000000000000000000000000000000000000000000000008152602060048201526024808201527f53756e746574692064656a6120696e73637269732063612073692063616e646960448201527f646174210000000000000000000000000000000000000000000000000000000060648201526084016101f5565b60035434101561031c576040517f08c379a000000000000000000000000000000000000000000000000000000000815260206004820152601560248201527f466f6e6475726920696e737566696369656e746521000000000000000000000060448201526064016101f5565b60408051606081018252338082526020808301858152600084860181905292835290829052929020815181547fffffffffffffffffffffffff00000000000000000000000000000000000000001673ffffffffffffffffffffffffffffffffffffffff909116178155915190919060018201906103999082610906565b5060408201518160020155905050336001826040516103b89190610846565b908152604051908190036020018120805473ffffffffffffffffffffffffffffffffffffffff9384167fffffffffffffffffffffffff0000000000000000000000000000000000000000918216179091556004805460018101825560009182527f8a35acfbc15ff81a39ae7d344fd709f28e8600b4aa8c65c6b64bfe7fe36bd19b018054909216331790915560025460035493169280156108fc02929091818181858888f19350505050158015610473573d6000803e3d6000fd5b5050565b60008060018360405161048a9190610846565b90815260408051602092819003830190205473ffffffffffffffffffffffffffffffffffffffff168352908201929092520160009081206002018054916104d083610a20565b919050555050565b6004546040805160208101909152600080825260609291815b83811015610677576000806004838154811061050f5761050f610a7f565b600091825260208083209091015473ffffffffffffffffffffffffffffffffffffffff16835282019290925260400190206002015483101561066f576000806004838154811061056157610561610a7f565b600091825260208083209091015473ffffffffffffffffffffffffffffffffffffffff168352820192909252604001812060020154600480549195508291849081106105af576105af610a7f565b600091825260208083209091015473ffffffffffffffffffffffffffffffffffffffff168352820192909252604001902060010180546105ee90610862565b80601f016020809104026020016040519081016040528092919081815260200182805461061a90610862565b80156106675780601f1061063c57610100808354040283529160200191610667565b820191906000526020600020905b81548152906001019060200180831161064a57829003601f168201915b505050505091505b6001016104f1565b509392505050565b60008060006001846040516106949190610846565b90815260408051602092819003830190205473ffffffffffffffffffffffffffffffffffffffff16835290820192909252016000206002015492915050565b7f4e487b7100000000000000000000000000000000000000000000000000000000600052604160045260246000fd5b60006020828403121561071457600080fd5b813567ffffffffffffffff8082111561072c57600080fd5b818401915084601f83011261074057600080fd5b813581811115610752576107526106d3565b604051601f82017fffffffffffffffffffffffffffffffffffffffffffffffffffffffffffffffe0908116603f01168101908382118183101715610798576107986106d3565b816040528281528760208487010111156107b157600080fd5b826020860160208301376000928101602001929092525095945050505050565b60005b838110156107ec5781810151838201526020016107d4565b50506000910152565b60208152600082518060208401526108148160408501602087016107d1565b601f017fffffffffffffffffffffffffffffffffffffffffffffffffffffffffffffffe0169190910160400192915050565b600082516108588184602087016107d1565b9190910192915050565b600181811c9082168061087657607f821691505b6020821081036108af577f4e487b7100000000000000000000000000000000000000000000000000000000600052602260045260246000fd5b50919050565b601f821115610901576000816000526020600020601f850160051c810160208610156108de5750805b601f850160051c820191505b818110156108fd578281556001016108ea565b5050505b505050565b815167ffffffffffffffff811115610920576109206106d3565b6109348161092e8454610862565b846108b5565b602080601f83116001811461098757600084156109515750858301515b7fffffffffffffffffffffffffffffffffffffffffffffffffffffffffffffffff600386901b1c1916600185901b1785556108fd565b6000858152602081207fffffffffffffffffffffffffffffffffffffffffffffffffffffffffffffffe08616915b828110156109d4578886015182559484019460019091019084016109b5565b5085821015610a1057878501517fffffffffffffffffffffffffffffffffffffffffffffffffffffffffffffffff600388901b60f8161c191681555b5050505050600190811b01905550565b60007fffffffffffffffffffffffffffffffffffffffffffffffffffffffffffffffff8203610a78577f4e487b7100000000000000000000000000000000000000000000000000000000600052601160045260246000fd5b5060010190565b7f4e487b7100000000000000000000000000000000000000000000000000000000600052603260045260246000fdfea2646970667358221220f5eec7faff76b67a4d3044cb8ed57366fd5fd13443eef43a3098b69d9ef7611e64736f6c63430008180033",
  "linkReferences": {},
  "deployedLinkReferences": {}
}