{
  "_format": "hh-sol-artifact-1",
  "contractName": "JetonERC20",
  "sourceName": "contracts/JetonERC20.sol",
  "abi": [
    {
      "inputs": [
        {
          "internalType": "uint256",
          "name": "tokens",
          "type": "uint256"
        }
      ],
      "stateMutability": "nonpayable",
      "type": "constructor"
    },
    {
      "anonymous": false,
      "inputs": [
        {
          "indexed": true,
          "internalType": "address",
          "name": "tokenOwner",
          "type": "address"
        },
        {
          "indexed": true,
          "internalType": "address",
          "name": "spender",
          "type": "address"
        },
        {
          "indexed": false,
          "internalType": "uint256",
          "name": "tokens",
          "type": "uint256"
        }
      ],
      "name": "Approval",
      "type": "event"
    },
    {
      "anonymous": false,
      "inputs": [
        {
          "indexed": true,
          "internalType": "address",
          "name": "from",
          "type": "address"
        },
        {
          "indexed": true,
          "internalType": "address",
          "name": "to",
          "type": "address"
        },
        {
          "indexed": false,
          "internalType": "uint256",
          "name": "tokens",
          "type": "uint256"
        }
      ],
      "name": "Transfer",
      "type": "event"
    },
    {
      "inputs": [
        {
          "internalType": "address",
          "name": "tokenOwner",
          "type": "address"
        },
        {
          "internalType": "address",
          "name": "spender",
          "type": "address"
        }
      ],
      "name": "allowance",
      "outputs": [
        {
          "internalType": "uint256",
          "name": "",
          "type": "uint256"
        }
      ],
      "stateMutability": "view",
      "type": "function"
    },
    {
      "inputs": [
        {
          "internalType": "address",
          "name": "spender",
          "type": "address"
        },
        {
          "internalType": "uint256",
          "name": "tokens",
          "type": "uint256"
        }
      ],
      "name": "approve",
      "outputs": [
        {
          "internalType": "bool",
          "name": "",
          "type": "bool"
        }
      ],
      "stateMutability": "nonpayable",
      "type": "function"
    },
    {
      "inputs": [
        {
          "internalType": "address",
          "name": "tokenOwner",
          "type": "address"
        }
      ],
      "name": "balanceOf",
      "outputs": [
        {
          "internalType": "uint256",
          "name": "",
          "type": "uint256"
        }
      ],
      "stateMutability": "view",
      "type": "function"
    },
    {
      "inputs": [],
      "name": "decimals",
      "outputs": [
        {
          "internalType": "uint8",
          "name": "",
          "type": "uint8"
        }
      ],
      "stateMutability": "view",
      "type": "function"
    },
    {
      "inputs": [],
      "name": "expirationTimestamp",
      "outputs": [
        {
          "internalType": "uint256",
          "name": "",
          "type": "uint256"
        }
      ],
      "stateMutability": "view",
      "type": "function"
    },
    {
      "inputs": [],
      "name": "name",
      "outputs": [
        {
          "internalType": "string",
          "name": "",
          "type": "string"
        }
      ],
      "stateMutability": "view",
      "type": "function"
    },
    {
      "inputs": [],
      "name": "symbol",
      "outputs": [
        {
          "internalType": "string",
          "name": "",
          "type": "string"
        }
      ],
      "stateMutability": "view",
      "type": "function"
    },
    {
      "inputs": [],
      "name": "totalSupply",
      "outputs": [
        {
          "internalType": "uint256",
          "name": "",
          "type": "uint256"
        }
      ],
      "stateMutability": "view",
      "type": "function"
    },
    {
      "inputs": [
        {
          "internalType": "address",
          "name": "receiver",
          "type": "address"
        },
        {
          "internalType": "uint256",
          "name": "tokens",
          "type": "uint256"
        }
      ],
      "name": "transfer",
      "outputs": [
        {
          "internalType": "bool",
          "name": "",
          "type": "bool"
        }
      ],
      "stateMutability": "nonpayable",
      "type": "function"
    },
    {
      "inputs": [
        {
          "internalType": "address",
          "name": "from",
          "type": "address"
        },
        {
          "internalType": "address",
          "name": "to",
          "type": "address"
        },
        {
          "internalType": "uint256",
          "name": "tokens",
          "type": "uint256"
        }
      ],
      "name": "transferFrom",
      "outputs": [
        {
          "internalType": "bool",
          "name": "",
          "type": "bool"
        }
      ],
      "stateMutability": "nonpayable",
      "type": "function"
    }
  ],
  "bytecode": "0x60c06040526011608090815270546f6b656e206f7074696f6e616c20424360781b60a05260039062000032908262000172565b506004805460ff1916905560408051808201909152600a81526922bab937ab34b9b4b7b760b11b60208201526005906200006d908262000172565b503480156200007b57600080fd5b5060405162000da038038062000da08339810160408190526200009e916200023e565b6000818155338152600160205260409020819055620000c1426203ca5062000258565b6006555062000280565b634e487b7160e01b600052604160045260246000fd5b600181811c90821680620000f657607f821691505b6020821081036200011757634e487b7160e01b600052602260045260246000fd5b50919050565b601f8211156200016d576000816000526020600020601f850160051c81016020861015620001485750805b601f850160051c820191505b81811015620001695782815560010162000154565b5050505b505050565b81516001600160401b038111156200018e576200018e620000cb565b620001a6816200019f8454620000e1565b846200011d565b602080601f831160018114620001de5760008415620001c55750858301515b600019600386901b1c1916600185901b17855562000169565b600085815260208120601f198616915b828110156200020f57888601518255948401946001909101908401620001ee565b50858210156200022e5787850151600019600388901b60f8161c191681555b5050505050600190811b01905550565b6000602082840312156200025157600080fd5b5051919050565b808201808211156200027a57634e487b7160e01b600052601160045260246000fd5b92915050565b610b1080620002906000396000f3fe608060405234801561001057600080fd5b50600436106100be5760003560e01c806370a08231116100765780639f43ddd21161005b5780639f43ddd214610186578063a9059cbb1461018f578063dd62ed3e146101a257600080fd5b806370a082311461014857806395d89b411461017e57600080fd5b806318160ddd116100a757806318160ddd1461010457806323b872dd14610116578063313ce5671461012957600080fd5b806306fdde03146100c3578063095ea7b3146100e1575b600080fd5b6100cb6101e8565b6040516100d891906108e1565b60405180910390f35b6100f46100ef366004610977565b610276565b60405190151581526020016100d8565b6000545b6040519081526020016100d8565b6100f46101243660046109a1565b61035b565b6004546101369060ff1681565b60405160ff90911681526020016100d8565b6101086101563660046109dd565b73ffffffffffffffffffffffffffffffffffffffff1660009081526001602052604090205490565b6100cb61063d565b61010860065481565b6100f461019d366004610977565b61064a565b6101086101b03660046109ff565b73ffffffffffffffffffffffffffffffffffffffff918216600090815260026020908152604080832093909416825291909152205490565b600380546101f590610a32565b80601f016020809104026020016040519081016040528092919081815260200182805461022190610a32565b801561026e5780601f106102435761010080835404028352916020019161026e565b820191906000526020600020905b81548152906001019060200180831161025157829003601f168201915b505050505081565b60006006544211156102e9576040517f08c379a000000000000000000000000000000000000000000000000000000000815260206004820152601260248201527f546f6b656e20686173206578706972656421000000000000000000000000000060448201526064015b60405180910390fd5b33600081815260026020908152604080832073ffffffffffffffffffffffffffffffffffffffff881680855290835292819020869055518581529192917f8c5be1e5ebec7d5bd14f71427d1e84f3dd0314c0f7b2291e5b200ac8c7c3b925910160405180910390a35060015b92915050565b6000838261036882610818565b73ffffffffffffffffffffffffffffffffffffffff82166000908152600160205260409020548111156103f7576040517f08c379a000000000000000000000000000000000000000000000000000000000815260206004820152601360248201527f496e73756666696369656e742066756e6473210000000000000000000000000060448201526064016102e0565b73ffffffffffffffffffffffffffffffffffffffff86166000908152600260209081526040808320338085529252909120548791908690811115610497576040517f08c379a000000000000000000000000000000000000000000000000000000000815260206004820152601760248201527f496e73756666696369656e7420616c6c6f77616e63652100000000000000000060448201526064016102e0565b600654421115610503576040517f08c379a000000000000000000000000000000000000000000000000000000000815260206004820152601260248201527f546f6b656e20686173206578706972656421000000000000000000000000000060448201526064016102e0565b73ffffffffffffffffffffffffffffffffffffffff8916600090815260016020526040902054610534908890610ab4565b73ffffffffffffffffffffffffffffffffffffffff8a166000908152600160209081526040808320939093556002815282822033835290522054610579908890610ab4565b73ffffffffffffffffffffffffffffffffffffffff808b166000908152600260209081526040808320338452825280832094909455918b168152600190915220546105c5908890610ac7565b73ffffffffffffffffffffffffffffffffffffffff808a1660008181526001602052604090819020939093559151908b16907fddf252ad1be2c89b69c2b068fc378daa952ba7f163c4a11628f55a4df523b3ef90610626908b815260200190565b60405180910390a350600198975050505050505050565b600580546101f590610a32565b6000328261065782610818565b73ffffffffffffffffffffffffffffffffffffffff82166000908152600160205260409020548111156106e6576040517f08c379a000000000000000000000000000000000000000000000000000000000815260206004820152601360248201527f496e73756666696369656e742066756e6473210000000000000000000000000060448201526064016102e0565b600654421115610752576040517f08c379a000000000000000000000000000000000000000000000000000000000815260206004820152601260248201527f546f6b656e20686173206578706972656421000000000000000000000000000060448201526064016102e0565b3260009081526001602052604090205461076d908590610ab4565b326000908152600160205260408082209290925573ffffffffffffffffffffffffffffffffffffffff8716815220546107a7908590610ac7565b73ffffffffffffffffffffffffffffffffffffffff86166000818152600160205260409081902092909255905132907fddf252ad1be2c89b69c2b068fc378daa952ba7f163c4a11628f55a4df523b3ef906108059088815260200190565b60405180910390a3506001949350505050565b60405173ffffffffffffffffffffffffffffffffffffffff821660248201526108b990604401604080517fffffffffffffffffffffffffffffffffffffffffffffffffffffffffffffffe08184030181529190526020810180517bffffffffffffffffffffffffffffffffffffffffffffffffffffffff167f2c2ecbc2000000000000000000000000000000000000000000000000000000001790526108bc565b50565b6108b98160006a636f6e736f6c652e6c6f679050600080835160208501845afa505050565b60006020808352835180602085015260005b8181101561090f578581018301518582016040015282016108f3565b5060006040828601015260407fffffffffffffffffffffffffffffffffffffffffffffffffffffffffffffffe0601f8301168501019250505092915050565b803573ffffffffffffffffffffffffffffffffffffffff8116811461097257600080fd5b919050565b6000806040838503121561098a57600080fd5b6109938361094e565b946020939093013593505050565b6000806000606084860312156109b657600080fd5b6109bf8461094e565b92506109cd6020850161094e565b9150604084013590509250925092565b6000602082840312156109ef57600080fd5b6109f88261094e565b9392505050565b60008060408385031215610a1257600080fd5b610a1b8361094e565b9150610a296020840161094e565b90509250929050565b600181811c90821680610a4657607f821691505b602082108103610a7f577f4e487b7100000000000000000000000000000000000000000000000000000000600052602260045260246000fd5b50919050565b7f4e487b7100000000000000000000000000000000000000000000000000000000600052601160045260246000fd5b8181038181111561035557610355610a85565b8082018082111561035557610355610a8556fea26469706673582212205381312bbe995b326280545339eb5be6cf10d278c108dbb3df356811f3dfc34464736f6c63430008180033",
  "linkReferences": {},
  "deployedLinkReferences": {}
}